{"abi":[{"type":"constructor","inputs":[{"name":"priceFeed","type":"address","internalType":"address"}],"stateMutability":"nonpayable"},{"type":"function","name":"MINIMUM_USD","inputs":[],"outputs":[{"name":"","type":"uint256","internalType":"uint256"}],"stateMutability":"view"},{"type":"function","name":"fund","inputs":[],"outputs":[],"stateMutability":"payable"},{"type":"function","name":"getAddressToAmountFunded","inputs":[{"name":"fundingAddress","type":"address","internalType":"address"}],"outputs":[{"name":"","type":"uint256","internalType":"uint256"}],"stateMutability":"view"},{"type":"function","name":"getFunder","inputs":[{"name":"index","type":"uint256","internalType":"uint256"}],"outputs":[{"name":"","type":"address","internalType":"address"}],"stateMutability":"view"},{"type":"function","name":"getOwner","inputs":[],"outputs":[{"name":"","type":"address","internalType":"address"}],"stateMutability":"view"},{"type":"function","name":"getPriceFeed","inputs":[],"outputs":[{"name":"","type":"address","internalType":"contract AggregatorV3Interface"}],"stateMutability":"view"},{"type":"function","name":"getVersion","inputs":[],"outputs":[{"name":"","type":"uint256","internalType":"uint256"}],"stateMutability":"view"},{"type":"function","name":"withdraw","inputs":[],"outputs":[],"stateMutability":"nonpayable"},{"type":"error","name":"FundMe__NotEnoughMoney","inputs":[]},{"type":"error","name":"FundMe__NotOwner","inputs":[]}],"bytecode":{"object":"0x60a060405234801561000f575f5ffd5b50604051610ec3380380610ec383398181016040528101906100319190610109565b8060025f6101000a81548173ffffffffffffffffffffffffffffffffffffffff021916908373ffffffffffffffffffffffffffffffffffffffff1602179055503373ffffffffffffffffffffffffffffffffffffffff1660808173ffffffffffffffffffffffffffffffffffffffff168152505050610134565b5f5ffd5b5f73ffffffffffffffffffffffffffffffffffffffff82169050919050565b5f6100d8826100af565b9050919050565b6100e8816100ce565b81146100f2575f5ffd5b50565b5f81519050610103816100df565b92915050565b5f6020828403121561011e5761011d6100ab565b5b5f61012b848285016100f5565b91505092915050565b608051610d6961015a5f395f8181610407015281816104a801526106620152610d695ff3fe60806040526004361061007a575f3560e01c8063893d20e81161004d578063893d20e8146101245780639e87a5cd1461014e578063b60d428814610178578063d7b4750c146101825761007a565b80630343fb251461007e5780630d8e6e2c146100ba5780633ccfd60b146100e45780636b69a592146100fa575b5f5ffd5b348015610089575f5ffd5b506100a4600480360381019061009f91906108af565b6101be565b6040516100b191906108f2565b60405180910390f35b3480156100c5575f5ffd5b506100ce610204565b6040516100db91906108f2565b60405180910390f35b3480156100ef575f5ffd5b506100f8610298565b005b348015610105575f5ffd5b5061010e610499565b60405161011b91906108f2565b60405180910390f35b34801561012f575f5ffd5b506101386104a5565b604051610145919061091a565b60405180910390f35b348015610159575f5ffd5b506101626104cc565b60405161016f919061098e565b60405180910390f35b6101806104f4565b005b34801561018d575f5ffd5b506101a860048036038101906101a391906109d1565b61061d565b6040516101b5919061091a565b60405180910390f35b5f60015f8373ffffffffffffffffffffffffffffffffffffffff1673ffffffffffffffffffffffffffffffffffffffff1681526020019081526020015f20549050919050565b5f60025f9054906101000a900473ffffffffffffffffffffffffffffffffffffffff1673ffffffffffffffffffffffffffffffffffffffff166354fd4d506040518163ffffffff1660e01b8152600401602060405180830381865afa15801561026f573d5f5f3e3d5ffd5b505050506040513d601f19601f820116820180604052508101906102939190610a10565b905090565b6102a0610660565b5f5f80548060200260200160405190810160405280929190818152602001828054801561031f57602002820191905f5260205f20905b815f9054906101000a900473ffffffffffffffffffffffffffffffffffffffff1673ffffffffffffffffffffffffffffffffffffffff16815260200190600101908083116102d6575b505050505090505f5f90505b5f805490508110156103a5575f82828151811061034b5761034a610a3b565b5b602002602001015190505f60015f8373ffffffffffffffffffffffffffffffffffffffff1673ffffffffffffffffffffffffffffffffffffffff1681526020019081526020015f208190555050808060010191505061032b565b505f67ffffffffffffffff8111156103c0576103bf610a68565b5b6040519080825280602002602001820160405280156103ee5781602001602082028036833780820191505090505b505f90805190602001906104039291906107af565b505f7f000000000000000000000000000000000000000000000000000000000000000073ffffffffffffffffffffffffffffffffffffffff164760405161044990610ac2565b5f6040518083038185875af1925050503d805f8114610483576040519150601f19603f3d011682016040523d82523d5f602084013e610488565b606091505b5050905080610495575f5ffd5b5050565b674563918244f4000081565b5f7f0000000000000000000000000000000000000000000000000000000000000000905090565b5f60025f9054906101000a900473ffffffffffffffffffffffffffffffffffffffff16905090565b674563918244f4000061053160025f9054906101000a900473ffffffffffffffffffffffffffffffffffffffff16346106e790919063ffffffff16565b1015610569576040517f2245050f00000000000000000000000000000000000000000000000000000000815260040160405180910390fd5b3460015f3373ffffffffffffffffffffffffffffffffffffffff1673ffffffffffffffffffffffffffffffffffffffff1681526020019081526020015f205f8282546105b59190610b03565b925050819055505f33908060018154018082558091505060019003905f5260205f20015f9091909190916101000a81548173ffffffffffffffffffffffffffffffffffffffff021916908373ffffffffffffffffffffffffffffffffffffffff160217905550565b5f5f828154811061063157610630610a3b565b5b905f5260205f20015f9054906101000a900473ffffffffffffffffffffffffffffffffffffffff169050919050565b7f000000000000000000000000000000000000000000000000000000000000000073ffffffffffffffffffffffffffffffffffffffff163373ffffffffffffffffffffffffffffffffffffffff16146106e5576040517f579610db00000000000000000000000000000000000000000000000000000000815260040160405180910390fd5b565b5f5f6106f283610721565b90505f670de0b6b3a7640000828661070a9190610b36565b6107149190610ba4565b9050809250505092915050565b5f5f8273ffffffffffffffffffffffffffffffffffffffff1663feaf968c6040518163ffffffff1660e01b815260040160a060405180830381865afa15801561076c573d5f5f3e3d5ffd5b505050506040513d601f19601f820116820180604052508101906107909190610c46565b5050509150506402540be400816107a79190610cbd565b915050919050565b828054828255905f5260205f20908101928215610825579160200282015b82811115610824578251825f6101000a81548173ffffffffffffffffffffffffffffffffffffffff021916908373ffffffffffffffffffffffffffffffffffffffff160217905550916020019190600101906107cd565b5b5090506108329190610836565b5090565b5b8082111561084d575f815f905550600101610837565b5090565b5f5ffd5b5f73ffffffffffffffffffffffffffffffffffffffff82169050919050565b5f61087e82610855565b9050919050565b61088e81610874565b8114610898575f5ffd5b50565b5f813590506108a981610885565b92915050565b5f602082840312156108c4576108c3610851565b5b5f6108d18482850161089b565b91505092915050565b5f819050919050565b6108ec816108da565b82525050565b5f6020820190506109055f8301846108e3565b92915050565b61091481610874565b82525050565b5f60208201905061092d5f83018461090b565b92915050565b5f819050919050565b5f61095661095161094c84610855565b610933565b610855565b9050919050565b5f6109678261093c565b9050919050565b5f6109788261095d565b9050919050565b6109888161096e565b82525050565b5f6020820190506109a15f83018461097f565b92915050565b6109b0816108da565b81146109ba575f5ffd5b50565b5f813590506109cb816109a7565b92915050565b5f602082840312156109e6576109e5610851565b5b5f6109f3848285016109bd565b91505092915050565b5f81519050610a0a816109a7565b92915050565b5f60208284031215610a2557610a24610851565b5b5f610a32848285016109fc565b91505092915050565b7f4e487b71000000000000000000000000000000000000000000000000000000005f52603260045260245ffd5b7f4e487b71000000000000000000000000000000000000000000000000000000005f52604160045260245ffd5b5f81905092915050565b50565b5f610aad5f83610a95565b9150610ab882610a9f565b5f82019050919050565b5f610acc82610aa2565b9150819050919050565b7f4e487b71000000000000000000000000000000000000000000000000000000005f52601160045260245ffd5b5f610b0d826108da565b9150610b18836108da565b9250828201905080821115610b3057610b2f610ad6565b5b92915050565b5f610b40826108da565b9150610b4b836108da565b9250828202610b59816108da565b91508282048414831517610b7057610b6f610ad6565b5b5092915050565b7f4e487b71000000000000000000000000000000000000000000000000000000005f52601260045260245ffd5b5f610bae826108da565b9150610bb9836108da565b925082610bc957610bc8610b77565b5b828204905092915050565b5f69ffffffffffffffffffff82169050919050565b610bf281610bd4565b8114610bfc575f5ffd5b50565b5f81519050610c0d81610be9565b92915050565b5f819050919050565b610c2581610c13565b8114610c2f575f5ffd5b50565b5f81519050610c4081610c1c565b92915050565b5f5f5f5f5f60a08688031215610c5f57610c5e610851565b5b5f610c6c88828901610bff565b9550506020610c7d88828901610c32565b9450506040610c8e888289016109fc565b9350506060610c9f888289016109fc565b9250506080610cb088828901610bff565b9150509295509295909350565b5f610cc782610c13565b9150610cd283610c13565b9250828202610ce081610c13565b91507f800000000000000000000000000000000000000000000000000000000000000084145f84121615610d1757610d16610ad6565b5b8282058414831517610d2c57610d2b610ad6565b5b509291505056fea26469706673582212205c3d5a7fed820e36f5427de1efaa6de8df6669816615ed3606089301cd265ac664736f6c634300081e0033","linkReferences":{}},"methodIdentifiers":{"MINIMUM_USD()":"6b69a592","fund()":"b60d4288","getAddressToAmountFunded(address)":"0343fb25","getFunder(uint256)":"d7b4750c","getOwner()":"893d20e8","getPriceFeed()":"9e87a5cd","getVersion()":"0d8e6e2c","withdraw()":"3ccfd60b"},"id":18}